:100000002100FF31DEFE21F8FFE52100007DD11245
:1000100021FCFFE52100007DD11221F9FFE521003F
:10002000007DD1123E42D340CD200521EAFEE521DC
:100030003000D17D12137C1221ECFEE5212000D18D
:100040007D12137C1221F8FEE52100DAD17D121316
:100050007C1221F6FEE52100DBD17D12137C1221FA
:10006000F4FEE5214000D17D12137C1221F2FEE561
:10007000218000D17D12137C1221FAFEE5210000BF
:10008000D17D12137C1221F8FFE521F4FE7E236658
:100090006F7DD11221E8FEE521F9FF7E6F2600D1A8
:1000A0007D12137C1221E6FEE521FAFF7E6F260009
:1000B000D17D12137C1221E4FEE521FBFF7E6F2629
:1000C00000D17D12137C1221E8FE01F6FE7ECDE602
:1000D000040221F6FE7ED34221DEFEE5DB416F26DF
:1000E00000D17D12137C1221DEFE7E23666FE52196
:1000F0000100D1CD61057CB5CA3E0121E8FECD00ED
:100100000521F8FE7ED3C1237ED3C021E6FE7ECD3D
:10011000000521F8FE7ED380237ED3C321E4FE7E3A
:10012000CD000521F8FE7ED383237ED38221F8FF04
:10013000E521FAFE7E23666F7DD112C39D0121E881
:10014000FE01F6FE7ECDE6040221F6FECD0005217D
:10015000F8FE7ED3C1237ED3C021E6FE01F6FE7EEB
:10016000CDE6040221F6FECD000521F8FE7ED38007
:10017000237ED3C321E4FE01F6FE7ECDE6040221F8
:10018000F6FECD000521F8FE7ED383237ED38221A7
:10019000F8FFE521FAFE7E23666F7DD11221E2FE93
:1001A000E5DB436F2600D17D12137C1221E2FE7E37
:1001B00023666FE521D000D1CD4E057CB5CAB702CC
:1001C00021F8FFE521F2FE7E23666F7DD11221FC2E
:1001D000FEE521FBFF7E6F2600D17D12137C1221EC
:1001E000FCFEE521FCFE7E23666FE5210100D119AE
:1001F000D17D12137C1221FCFE7E23666FE5210A5D
:1002000000D1CD4E057CB5CA210221FCFEE521FCC2
:10021000FE7E23666FE5210600D119D17D12137C85
:100220001221FCFE7E23666FE5211A00D1CD4E051A
:100230007CB5CA4C0221FCFEE521FCFE7E23666FE4
:10024000E5210600D119D17D12137C1221FCFE7E1E
:1002500023666FE5212A00D1CD4E057CB5CA770211
:1002600021FCFEE521FCFE7E23666FE5210600D120
:1002700019D17D12137C1221FCFE7E23666FE521CD
:100280002400D1CD4E057CB5CA980221FCFEE521A3
:100290000000D17D12137C1221FBFFE521FCFE7EC4
:1002A00023666F7DD11221F8FFE521FAFE7E2366D9
:1002B0006F7DD112CD710421E0FEE5DB436F260096
:1002C000D17D12137C1221E0FE7E23666FE521C8EA
:1002D00000D1CD4E057CB5CA5C0421F8FFE521F2C2
:1002E000FE7E23666F7DD11221F9FFE52100007D9E
:1002F000D11221FEFEE521FAFF7E6F2600D17D128C
:10030000137C1221FEFEE521FEFE7E23666FE521B1
:100310000100D119D17D12137C1221FEFE7E2366CD
:100320006FE5210A00D1CD4E057CB5CA450321FEFB
:10033000FEE521FEFE7E23666FE5210600D119D180
:100340007D12137C1221FEFE7E23666FE5211A00CA
:10035000D1CD4E057CB5CA700321FEFEE521FEFE1F
:100360007E23666FE5210600D119D17D12137C1220
:1003700021FEFE7E23666FE5212A00D1CD4E057C4D
:10038000B5CA9B0321FEFEE521FEFE7E23666FE5D6
:10039000210600D119D17D12137C1221FEFE7E238D
:1003A000666FE5213A00D1CD4E057CB5CAC6032162
:1003B000FEFEE521FEFE7E23666FE5210600D119D3
:1003C000D17D12137C1221FEFE7E23666FE5214A49
:1003D00000D1CD4E057CB5CAF10321FEFEE521FE1C
:1003E000FE7E23666FE5210600D119D17D12137CB4
:1003F0001221FEFE7E23666FE5215A00D1CD4E0507
:100400007CB5CA1C0421FEFEE521FEFE7E23666F3C
:10041000E5210600D119D17D12137C1221FEFE7E4A
:1004200023666FE5216000D1CD4E057CB5CA3D0441
:1004300021FEFEE5210000D17D12137C1221FAFF7E
:10044000E521FEFE7E23666F7DD11221F8FFE521B6
:10045000FAFE7E23666F7DD112CD710421F8FFE58F
:1004600021FAFE7E23666F7DD112CD7104C3860012
:100470007621EEFEE5210000D17D12137C1221EEE3
:10048000FE7E23666FE521EAFE7E23666FD1CD6D89
:10049000057CB5CAE50421F0FEE5210000D17D12FE
:1004A000137C1221F0FE7E23666FE521ECFE7E2395
:1004B000666FD1CD6D057CB5CAD00421F0FEE52173
:1004C000F0FE7E23666FD1237D12137C12C3A3043A
:1004D00021EEFEE521EEFE7E23666FD1237D121311
:1004E0007C12C37E04C9C5D547E60F4F78E6F00FEE
:1004F0000F0F0F57AF1E0A8315C2F70481D1C1C970
:1005000011F8FE7E470F0F0F0FCD1405121378CD93
:10051000140512C9E60FFE0ADA1D05C607C630C962
:100520003E20D3833E20D3823E20D3813E20D38001
:100530003E20D3C33E20D3C23E20D3C13E20D3C0F1
:100540003E3AD3813E3AD3C23E00D341C976CD7400
:1005500005C82BC9CD7405C02BC9EBCD7405D82BAC
:10056000C9CD7405D02BC9CD7405D82BC9CD740560
:10057000C8D82BC97B955F7A9C210100FA8105B30D
:04058000C9B337C9FB
:00000001FF
